:020000040000FA
:1000000000001E2800340034A200030E8301A1006A
:100010000A088A01A0000408CF0083120B1E1428CE
:100020008B1C14288B138B104F08840020088A0027
:100030008301210E8300A20E220E09000A30AE00B9
:100040000230AF00803000000000D6210000000028
:1000500083120000B1002F08B0000C30B200023053
:10006000B300831200003008B4003108B500FF303F
:10007000B007031CB103350834040319B628043053
:100080003207B400B501B50D3308B5073408AE002A
:100090003508AF00803000000000D62100000000CD
:1000A00083120000B7002F08B6003208AE003308F4
:1000B000AF00803000000000D62100000000831255
:1000C0000000B900B5002F08B400B80002303207B4
:1000D000B400B501B50D3308B5073408AE003508D6
:1000E000AF00803000000000D62100000000831225
:1000F0000000B500BB002F08BA00B4008312000056
:100100003608BA003708BB00FF30B607031CB70338
:100110003B083A040319AF283808AE003908AF008D
:10012000803000000000F721000000008312000072
:10013000BA0034088312031384008313831200006F
:10014000351883173A0883120313800083120000C6
:10015000B80A0319B90AB40A0319B50A7E28063089
:1001600083120000B2070318B30A31280000000010
:10017000BA2808008316FF239000831264008316B8
:100180009F01073083129900831685010515151507
:100190008113831285018B018316011383120B16C1
:1001A0008B13FA30D12183128B1763005608CA00D3
:1001B000CB01CA0A0319CB0A0530AD000030AE00EE
:1001C0004A08AF004B081D21CB002F08CA00D600FB
:1001D00083128501CA01CB015608CC00CD014B0822
:1001E000803ECE000030803E4E02031DF9284C08B0
:1001F0004A020318D1284A08503ECC000030CD00F6
:100200004B0803184B0FCD074C08840083134D187F
:1002100083170008CE000130CC004E08003C0319C3
:100220001529CC0D013E031C11294C0883128504AD
:10023000CA0A0319CB0AEC28080083120000BD008B
:100240002F08BC002E08BF002D08BE000314BD1FE0
:100250000310C001C00D4008031936293C09C10034
:100260003D09C200C10A0319C20A3C2983120000D9
:100270003C08C1003D08C200831200004108BC00D8
:100280004208BD000314BF1F0310031C4F293E0981
:10029000C1003F09C200C10A0319C20A55298312CD
:1002A00000003E08C1003F08C20083120000410860
:1002B000BE00AD004208BF00AE003C08AF003D08E4
:1002C000000000007E210000000083120000BD003D
:1002D0002F08BC004008031978293C09C0003D09DB
:1002E000BE00C00A0319BE0A4008AF003E087D29BF
:1002F000831200003C08AF003D0808008312000094
:10030000C4002F08C3002E08C6002D08C500C70171
:10031000C8018312000046088039031D0130C9005E
:100320004908031DAA290310C50DC60D460844023D
:10033000031D9C29450843020318A42903108312B6
:100340000000C60CC50CAA2983120000C80A480880
:10035000C70089298312000046084402031DB22900
:1003600045084302031CBC29831200004508C30250
:100370004608031C460FC402031083120000C60C7B
:10038000C50C4708C800C7034808031DAA2943082D
:10039000AF0044080800C730D400CE29D40BCD29C3
:1003A0000800D500CB21D50BD2290800003A03194B
:1003B000DE29803A0319E829AF0100342E088400B1
:1003C00083132F1883170008AF00840A0008080061
:1003D000000000000522AD00AE0FAF03AF0A000021
:1003E00000000522AC002D08AF002C080800003AE0
:1003F0000319FE29803A0319052A00342E088400C7
:1004000083132F188317000808002F088A002E086E
:1004100082000800033400341E34023450340034A7
:1004200004340034023400345634003401340034CF
:1004300003340034573400340134003400340434BD
:04044000013405344A
:02400E00843FED
:00000001FF
